:100000000110180000000000A01F0000FFDB00002E
:10001000020F0DFFFFFFFFFFFFFFFF0218657E03CA
:100020009000DCE06F6005EFF0E4A3F09000DCE00E
:10003000B4FF02E4FE9000DDE004F0C39E50037FB5
:1000400000229000DD7403F07F0122021A53E4F5D0
:10005000E3439F08439F02FF0FBF0FFC539FF775B9
:10006000BE0EE4F5BFF5B97592762202149C8F1C82
:10007000EF25E02410F8E2F51F08E2F520E51CC3A7
:100080009404500302017FEF25E024BEF582E4349E
:1000900015F583E493FA740193FBD39520EA951F39
:1000A0004019AE1FAF207C007D501205DBAD03ACC4
:1000B000021205ED8E1D8F1E0205BDE51C25E024F4
:1000C000CEF582E43415F583E493FA740193FBD3FF
:1000D0009520EA951F4054E51C25E024BEF582E4F6
:1000E0003415F583E493FE740193FFC3E5209FFF6D
:1000F000E51F9EFE7C007D0A1205DBE51C25E02441
:10010000BEF582E43415F583E493FC740193FDC3DA
:10011000EB9DFDEA9CFC1205ED8E1D8F1E74502593
:100120001EF51EE4351DF51D0205BDE51C25E02468
:10013000CEF582E43415F583E493FE740193FFC396
:10014000E5209FFFE51F9EFE7C007D0A1205DBE592
:100150001C25E024CEF582E43415F583E493FC7489
:100160000193FDE51C25E024DEF582E43415F583DA
:10017000C37401939DFDE4939CFC1205ED8E1D8FCD
:100180001E745A251EF51EE4351DF51D0205BDE53C
:100190001C25E0244EF582E43415F583E493FC74C9
:1001A0000193FDECC313FEED13FFC3E5209FE51F94
:1001B0009E5008E4F51DF51E0205BDD3ED9520EC1B
:1001C000951F4029AE1FAF207C007D0A1205DBE59C
:1001D0001C25E0244EF582E43415F583E493FC7489
:1001E0000193FD1205ED8E1D8F1E0205BDE51C2538
:1001F000E0245EF582E43415F583E493FA74019308
:10020000FBD39520EA951F4054E51C25E0244EF5CC
:1002100082E43415F583E493FE740193FFC3E52073
:100220009FFFE51F9EFE7C007D0A1205DBE51C2575
:10023000E0244EF582E43415F583E493FC740193D5
:10024000FDC3EB9DFDEA9CFC1205ED8E1D8F1E7417
:100250000A251EF51EE4351DF51D0205BDE51C250C
:10026000E0246EF582E43415F583E493FA74019387
:10027000FBD39520EA951F4054E51C25E0245EF54C
:1002800082E43415F583E493FE740193FFC3E52003
:100290009FFFE51F9EFE7C007D0A1205DBE51C2505
:1002A000E0245EF582E43415F583E493FC74019355
:1002B000FDC3EB9DFDEA9CFC1205ED8E1D8F1E74A7
:1002C00014251EF51EE4351DF51D0205BDE51C2592
:1002D000E0247EF582E43415F583E493FA74019307
:1002E000FBD39520EA951F4054E51C25E0246EF5CC
:1002F00082E43415F583E493FE740193FFC3E52093
:100300009FFFE51F9EFE7C007D0A1205DBE51C2594
:10031000E0246EF582E43415F583E493FC740193D4
:10032000FDC3EB9DFDEA9CFC1205ED8E1D8F1E7436
:100330001E251EF51EE4351DF51D0205BDE51C2517
:10034000E0248EF582E43415F583E493FA74019386
:10035000FBD39520EA951F4054E51C25E0247EF54B
:1003600082E43415F583E493FE740193FFC3E52022
:100370009FFFE51F9EFE7C007D0A1205DBE51C2524
:10038000E0247EF582E43415F583E493FC74019354
:10039000FDC3EB9DFDEA9CFC1205ED8E1D8F1E74C6
:1003A00028251EF51EE4351DF51D0205BDE51C259D
:1003B000E0249EF582E43415F583E493FA74019306
:1003C000FBD39520EA951F4054E51C25E0248EF5CB
:1003D00082E43415F583E493FE740193FFC3E520B2
:1003E0009FFFE51F9EFE7C007D0A1205DBE51C25B4
:1003F000E0248EF582E43415F583E493FC740193D4
:10040000FDC3EB9DFDEA9CFC1205ED8E1D8F1E7455
:1004100032251EF51EE4351DF51D0205BDE51C2522
:10042000E024AEF582E43415F583E493FA74019385
:10043000FBD39520EA951F4054E51C25E0249EF54A
:1004400082E43415F583E493FE740193FFC3E52041
:100450009FFFE51F9EFE7C007D0A1205DBE51C2543
:10046000E0249EF582E43415F583E493FC74019353
:10047000FDC3EB9DFDEA9CFC1205ED8E1D8F1E74E5
:100480003C251EF51EE4351DF51D0205BDE51C25A8
:10049000E024BEF582E43415F583E493FA74019305
:1004A000FBD39520EA951F4054E51C25E024AEF5CA
:1004B00082E43415F583E493FE740193FFC3E520D1
:1004C0009FFFE51F9EFE7C007D0A1205DBE51C25D3
:1004D000E024AEF582E43415F583E493FC740193D3
:1004E000FDC3EB9DFDEA9CFC1205ED8E1D8F1E7475
:1004F00046251EF51EE4351DF51D0205BDE51C252E
:10050000E024CEF582E43415F583E493FA74019384
:10051000FBD39520EA951F4053E51C25E024BEF54A
:1005200082E43415F583E493FE740193FFC3E52060
:100530009FFFE51F9EFE7C007D0A1205DBE51C2562
:10054000E024BEF582E43415F583E493FC74019352
:10055000FDC3EB9DFDEA9CFC1205ED8E1D8F1E7404
:1005600050251EF51EE4351DF51D8061E51C25E0B6
:1005700024CEF582E43415F583E493FE740193FFF1
:10058000C3E5209FFFE51F9EFE7C007D0A1205DB70
:10059000E51C25E024CEF582E43415F583E493FCD4
:1005A000740193FDE51C25E024DEF582E43415F5A5
:1005B00083C37401939DFDE4939CFC1205ED8E1D95
:1005C0008F1E745A251EF51EE4351DF51DAE1DAF98
:1005D0001E22BB010689828A83E0225002E722BBE9
:1005E000FE02E32289828A83E49322EF8DF0A4A89D
:1005F000F0CF8CF0A428CE8DF0A42EFE22BC000BF0
:10060000BE0029EF8DF084FFADF022E4CCF875F048
:1006100008EF2FFFEE33FEEC33FCEE9DEC98400527
:10062000FCEE9DFE0FD5F0E9E4CEFD22EDF8F5F0ED
:10063000EE8420D21CFEADF075F008EF2FFFED33F5
:10064000FD4007985006D5F0F222C398FD0FD5F073
:10065000EA22E88FF0A4CC8BF0A42CFCE98EF0A465
:100660002CFC8AF0EDA42CFCEA8EF0A4CDA8F08B33
:10067000F0A42DCC3825F0FDE98FF0A42CCD35F079
:10068000FCEB8EF0A4FEA9F0EB8FF0A4CFC5F02E0A
:10069000CD39FEE43CFCEAA42DCE35F0FDE43CFC73
:1006A0002275F008758200EF2FFFEE33FECD33CDBB
:1006B000CC33CCC58233C5829BED9AEC99E5829808
:1006C000400CF582EE9BFEED9AFDEC99FC0FD5F007
:1006D000D6E4CEFBE4CDFAE4CCF9A88222B800C17E
:1006E000B90059BA002DEC8BF084CFCECDFCE5F0EB
:1006F000CBF97818EF2FFFEE33FEED33FDEC33FC32
:10070000EB33FB10D703994004EB99FB0FD8E5E4DA
:10071000F9FA227818EF2FFFEE33FEED33FDEC33BC
:10072000FCC933C910D7059BE99A4007EC9BFCE94B
:100730009AF90FD8E0E4C9FAE4CCFB2275F010EF87
:100740002FFFEE33FEED33FDCC33CCC833C810D7CA
:10075000079BEC9AE899400AED9BFDEC9AFCE8991E
:10076000F80FD5F0DAE4CDFBE4CCFAE4C8F922EBDB
:100770009FF5F0EA9E42F0E99D42F0E89C45F022A8
:10078000E8600FECC313FCED13FDEE13FEEF13FF57
:10079000D8F122E8600FEFC333FFEE33FEED33FDF7
:1007A000EC33FCD8F122E6FC08E6FD08E6FE08E69C
:1007B000FF22E6FB08E6F908E6FA08E6CBF822ECA9
:1007C000F608EDF608EEF608EFF622ECF208EDF288
:1007D00008EEF208EFF222D083D082E493F6087498
:1007E0000193F608740293F608740393F674047385
:1007F000D083D082E493F208740193F208740293D8
:10080000F208740393F27404738A838982E473E4B4
:10081000F519F518E51825E025E02484F81207E01D
:10082000000000000518E518B406E9121C18E4F5EC
:1008300018E51825E025E02484F8C000E2FC08E271
:10084000FD08E2FE08E2FFE51825E025E02450F867
:100850001207A2EF2BFFEE3AFEED39FDEC38FCD08B
:10086000001207BB0518E518B406C60519E519C33B
:10087000940540B7E4F518AF19E4FCFDFEC004A9E7
:1008800005AA06AB07E51825E025E02484F8E2FC7C
:1008900008E2FD08E2FE08E2FFD0001206CD8F1D3F
:1008A0008E1C8D1B8C1AAB1DAA1CA91BA81AC0007C
:1008B000E51825E02470F8E6FE08E6FFE4FCFDD02C
:1008C000001206428F1D8E1C8D1B8C1A7807120792
:1008D000708F1D8E1C8D1B8C1AE47FB87E0BFDFC67
:1008E000AB1DAA1CA91BA81AD312075F4030E51D37
:1008F0002448FFE51C34F4FEE51B34FFFDE51A3403
:10090000FFFCE51825E025E02430F81207AFE518D4
:1009100025E02430F8740BF20874B8F2801EE51854
:1009200025E025E02430F81207C700000000E51894
:1009300025E02430F8E51CF208E51DF2E51825E075
:100940002430F8E2FE08E2FFE51825E02450F8EE36
:10095000F208EFF2E51825E02430F8E2FE08E2FFA5
:10096000E4FCFDE51825E025E02460F81207BBE56E
:100970001825E025E02460F8C000E2FC08E2FD084C
:10098000E2FE08E2FF7807120783D0001207BBE5FA
:100990001825E02430F8E2FE08E2FFE51825E024FF
:1009A00040F8EEF208EFF2E51825E02410F8E4F242
:1009B00008F2E51825E025E02484F81207E000009D
:1009C0000000E51825E024B4F8E4F208F20518E583
:1009D0001864066003020867228E1A8F1BE4F51D57
:1009E000F51EF51FF51C9000F1E070089000DDE0A9
:1009F0006403601EE51C25E024B4F8E4F208F2E587
:100A00001C25E025E02484F81207E0000000000225
:100A10000ADFE51C25E0244EF582E43415F583E475
:100A200093F51D740193F51EE51C25E024B5F9E34B
:100A3000700219E3701AE51C25E02430F8E2FE0884
:100A4000E2FFE51C25E024A4F8EEF208EFF280575F
:100A5000E51C25E024A4F8E2FE08E2FFE51C25E001
:100A60002430F8E2FC08E2FD121E57D3EF951EEE8B
:100A7000951D4033E51C25E02430F8E2FE08E2FF36
:100A8000E51C25E024A4F8EEF208EFF2E51C25E0D1
:100A900024B4F8E4F208F2E51C25E025E02484F80B
:100AA0001207E000000000E51C25E02430F8E2FE1B
:100AB00008E2FFE51C25E025E02484F8C000E2FB05
:100AC00008E2F908E2FA08E2CBF8E4FCFDEB2FFFBC
:100AD000EA3EFEED39FDEC38FCD0001207BBE51C08
:100AE00025E024B4F808E22401F218E23400F2050B
:100AF0001CE51CC3940650030209D6E4F51CE51C52
:100B000025E024B5F9C3E3951B19E3951A400205C6
:100B10001F051CE51CB406E6E51F64067063F51CA2
:100B2000E51C25E024B4F8E2FE08E2FF4E604BE449
:100B3000FCFDC004A905AA06AB07E51C25E025E0DD
:100B40002484F8E2FC08E2FD08E2FE08E2FFD0009F
:100B50001206CDE51C25E02440F8EEF208EFF2E5A0
:100B60001C25E024B4F8E4F208F2E51C25E025E0B9
:100B70002484F81207E000000000051CE51CB40600
:100B80009F2285BA1E53BA0F43BA10E4F518E51830
:100B900025E025E02450F81207C7000000000518E2
:100BA000E518B406E975180A75ABFF121DB1E4F536
:100BB00019E51925E025E02450F8C000120796C079
:100BC00004C005C006C00774C42519F8E675F00313
:100BD000A4248BF582E4341EF583E493FB74019323
:100BE000FA740293F91207F9A804A905AA06AB073B
:100BF000D007D006D005D004EF2BFFEE3AFEED393A
:100C0000FDEC38FCD0001207AF0519E519C39406B6
:100C1000409FE4F5AB121DB1E4F519E51925E02577
:100C2000E02450F8C000120796C004C005C006C0FA
:100C30000774C42519F8E675F003A4248BF582E443
:100C4000341EF583E493FB740193FA740293F91252
:100C500007F9A804A905AA06AB07D007D006D00556
:100C6000D004C3EF9BFFEE9AFEED99FDEC98FCD00B
:100C7000001207AF0519E519C39406409E1518E543
:100C8000186003020B98E4F519E4751D20751C4EDD
:100C9000F51BF51AAF1DAE1CAD1BAC1A7807120779
:100CA000838F1D8E1C8D1B8C1AE51925E025E024F1
:100CB00050F81207A21206CD8F1D8E1C8D1B8C1AA8
:100CC000E51925E02470F8A60608A6070519E51918
:100CD000B406B6851EBA22E4F518E51825E025E02D
:100CE0002450F8C000120796C006C007E51825E09A
:100CF0002470F8E6FE08E6FFFBAA06E4F9F8D00740
:100D0000D006120642D0001207AFE51825E025E014
:100D10002450F8C0001207967807120770D000120E
:100D200007AFE51825E025E02450F8120796EC4DB2
:100D30004E4F7003020DD9E51825E025E02430F868
:100D4000120796E51825E025E02450F81207A2C303
:100D500012075F50037F0322E51825E025E02430C9
:100D6000F81207A2C000E51825E025E02450F8128B
:100D70000796D000C3EF9BF51CEE9AF51BED99F595
:100D80001AEC98F519E47FFF7EFFFDFCAB1CAA1B53
:100D9000A91AA819C312075F40037F0322E518258B
:100DA000E02430F8E51BF208E51CF2E51825E02404
:100DB00040F8E2FE08E2FFE51825E02430F8E2FC06
:100DC00008E2FDD39FEC9E4013ED9FFFEC9EF8E5FB
:100DD0001825E02410C8F208EFF2801BE51825E082
:100DE0002410F8E4F208F2800EE51825E02410F84B
:100DF000E4F208F27F03220518E518640660030296
:100E00000CCA7F07227518077D0774017E00A81899
:100E1000088005C333CE33CED8F9FFACACECFBE48D
:100E2000EF5B7003D518E3ED601D74017E00A8052B
:100E3000088005C333CE33CED8F9FFACAEECFBE46B
:100E4000EF5B70031D80E0AF187401A807088002F3
:100E5000C333D8FCF5AC7401A805088002C333D8AD
:100E6000FCFFF5AD8FAE53AACF85BA2153BA0F431D
:100E7000BA10E4F51CF51BF51AF519121DB1E4F5CD
:100E80001874C42518F8E675F003A4248BF582E4E1
:100E9000341EF583E493740193FA740293F91207F4
:100EA000F98F208E1F8D1E8C1DAB1CAA1BA91AA8A2
:100EB00019C312075F500C85201C851F1B851E1A45
:100EC000851D190518E518C3940640B5AF1CAE1B67
:100ED000AD1AAC197803120770E51C2FF51CE51B41
:100EE0003EF51BE51A3DF51AE5193CF519AF1CAEA8
:100EF0001BAD1AFC78101207708FB3AF1CAE1BAD80
:100F00001AAC1978081207708FB2851CB143AA3049
:100F10008521BA75AC0375ADC075AEC022E453C669
:100F2000DFE5C600B5C6F675830075820775FD0D51
:100F3000E4E5FEF4FF75830075820675FD0DE4E5BA
:100F4000FEB50704F59E8003759E0078100000D85A
:100F5000FC53C6E043C60843C680759603759703E5
:100F600075830075820375FD0DE4E5FEF4FF75835E
:100F70000075820275FD0DE4E5FEB50704F5958068
:100F80000375958375BE0E5392FE9001007F007E1F
:100F900002E4F0A3DFFCDEFA78007F00E4F208DF71
:100FA000FC78FFE4F6D8FD7581CF020FDB0200006C
:100FB0000213CAE493A3F8E493A34003F68001F27A
:100FC00008DFF48029E493A3F85407240CC8C33342
:100FD000C4540F4420C8834004F456800146F6DF11
:100FE000E4800B0102040810204080901BD6E47EB0
:100FF000019360BCA3FF543F30E509541FFEE49306
:10100000A360010ECF54C025E060A840B8E493A3CC
:10101000FAE493A3F8E493A3C8C582C8CAC583CAF7
:10102000F0A3C8C582C8CAC583CADFE9DEE780BEAF
:10103000121B918F1A9000F1E060030210C4F51B9F
:10104000E51B25E02430F8E2FE08E2FFE48F1F8E66
:101050001EF51DF51CAD1DAC1C78071207838F1FF4
:101060008E1E8D1D8C1CE51B25E025E02460F8E21A
:10107000FC08E2FD08E2FE08E2FFE47B1FFAF9F853
:10108000120642EF251FFFEE351EFEED351DFDEC6D
:10109000351CFC7805120770E51B25E025E024606F
:1010A000F81207BBE51B25E025E02460F8E2FC0808
:1010B000E2FD08E2FE08E2FF7807120770E51B2553
:1010C000E02450F8EEF208EFF2051BE51B64066021
:1010D00003021030E49000EDF0A3F0751B01E51B56
:1010E00025E02450F8E2FE08E2FF9000EDE025E064
:1010F0002451F9C3E39F19E39E5003E51BF09000D0
:10110000EEE025E02451F9D3E39F19E39E4003E587
:101110001BF0051BE51BB406C5AF1A12000EEF70DD
:1011200002FF227F01227518FF7519081219FD129E
:101130001020BF012E7F01121CBFAD07AC06ECC30F
:1011400013FCED13FDD39000E5E094009000E4E083
:1011500094004006EC13FCED13FDAF05AE0412093C
:10116000C98003AF19229000DCE0F5189000F1E08F
:10117000602DE49000E8F0A3F09000E7E004F07048
:10118000069000E6E004F07F05121CBFD39000E754
:10119000E09F9000E6E09E4067121B477F0322E439
:1011A0009000E6F0A3F09000EDE025E02450F8E296
:1011B000FE08E2FFA3E025E02450F8E2FC08E2FD8F
:1011C000121E579000EFE0FDD3EF9DEE940040100B
:1011D0009000E9E004F070069000E8E004F0800779
:1011E000E49000E8F0A3F07F07121CBFD39000E961
:1011F000E09F9000E8E09E4007E4F0A3F0121202A6
:10120000E518047005121B478005AF181217F2AFDE
:101210001922E4F51AE51A25E025E02430F8120732
:1012200096E4FBFAF9F8C312075F70030212E1E5D6
:101230001A25E025E02430F8C000120796C006C049
:1012400007E51A25E02440F8E2FE08E2FFFBAA06C3
:10125000E4F9F8D007D006EF2BFFEE3AFEE93DFDAA
:10126000E83CFCD0001207AFE51A25E025E0243069
:10127000F8C000120796C3EF94B8FFEE940BFEED92
:101280009400FDEC9400FCD0001207AFE51A25E0B5
:101290002440F8740BF20874B8F2E51A25E0243003
:1012A000F8740BF20874B8F2E51A25E02450F874CB
:1012B0000BF20874B8F2E51A25E025E02460F81274
:1012C00007E000000BB8E51A25E025E02460F8C02F
:1012D00000E2FC08E2FD08E2FE08E2FF78071207E0
:1012E00083D0001207BBE51A25E02410F8E4F208C9
:1012F000F2051AE51A64066003021205227522FF40
:10130000E4F5219000EDE0FD65217063A3E025E0A8
:101310002450F8E2FE08E2FFED25E02450F8E2FC5C
:1013200008E2FD121E578E238F249000EEE025E088
:101330002430F8E2FE08E2FF9000EDE025E02430E2
:10134000F8E2FC08E2FD121E579000EFE07C002559
:1013500024FDEC3523FCC3EF9DEE9C506AAF217455
:1013600001A807088002C333D8FCF452228058E554
:101370002125E02430F8E2FE08E2FF9000EDE025B0
:10138000E02451F9D3E39F19E39E4010AD2174018D
:10139000A805088002C333D8FCF45222E52125E0D9
:1013A0002451F89000EFE0FDE22DFD18E23400FC3E
:1013B000C3EF9DEE9C5010AF217401A80708800276
:1013C000C333D8FCF452220521E521C39404500311
:1013D0000212F39000F5E522F02212003E7D01E4B6
:1013E000FF121C547F01121E1D7F01121E71121F5D
:1013F00085121F78121DD7121AA9121C8A121D26D7
:10140000D2AF752E01E52E24FD601C14602424FE4D
:1014100060291460301460602407705F121AFC1297
:1014200018D0752E048054121AFC1218D0752E0490
:101430008049E52F70FC752E068040120CC78F2E58
:10144000121EA38036D39000E5E094009000E4E003
:101450009400400CA3E024FFF09000E4E034FFF09F
:101460009000E1E004F070069000E0E004F012115A
:10147000168F2E12168B8003752E049000F0E060FC
:1014800022E4788BF6FF121F85E4F0F52AF52B0095
:10149000052BE52B7002052A64A0452A70F17F0117
:1014A000121F85D2D81219370213F522C0E0C0F0FE
:1014B000C083C082C0D075D008C2CF30CD03021522
:1014C0004330CB4920CC467880A6CEE6FF54F0FED0
:1014D000BE8031EF540F75F003A42457F582E43435
:1014E0001DF583E493FB740193FA7402938B278AAE
:1014F00028F5290529E5297002052814F91205C2E5
:10150000F5CE80097880E62526F8E6F5CE30CC2A9F
:101510007880E654F0FFBF8015AB270529E529AA9E
:10152000287002052814F91205C2F5CE80217880B2
:1015300006E62526F8E6F5CE801520CB127880E663
:10154000FFC3940A500674812FF8A6CE78800678DF
:101550008B7601D0D0D082D083D0F0D0E032001989
:1015600000190028002800080008000000000028DA
:10157000002800500050000A000A00000000004B44
:10158000004B007D007D000C000C00000000007D81
:10159000007D00FA00FA001000100000000000DCDE
:1015A00000DC01B801B80013001300000000014086
:1015B000014002760276001E001E0000000001C2FB
:1015C00001C203340334002D002D0000000002127C
:1015D00002120500050000500050000000000258F3
:1015E00002580528052800780078000000000276DF
:1015F00002760564056400DC00DC000000007BFF6F
:10160000E4FAEA25E02401F9C3E3941E19E3940007
:10161000507AEA25E02411F9E3700219E3600DEA3B
:1016200025E02419F9E3700219E3700CEA25E0249F
:1016300080F8E4F208F2802BEA25E02410F8E2FEBC
:1016400008E2FF7C007D641205DBEA25E02418F83F
:10165000E2FC08E2FD1205EDEA25E02480F8EEF256
:1016600008EFF2EA25E02480F8E2FE08E2FFC394E6
:101670002CEE94015016EF94C8EE9400400E7401C5
:10168000A802088002C333D8FCF452030AEA6402B9
:1016900060030215F29000F4EBF022E4F518E5186F
:1016A00075F006A42494FFE51825E02420F8E2FC58
:1016B00008E2FD121EB8E51875F006A42496FFE5B1
:1016C0001825E02410F8E2FC08E2FD121EB8E51827
:1016D00075F006A42498FBC003E51825E02430F833
:1016E000E2FE08E2FFE4FCFDE51825E025E02430F9
:1016F000F81207A2EF2BFFEE3AFEED39FDEC38FCB5
:101700007804120770AD07AC06D007121EB8051892
:10171000E518C39406408722E4FE788FE630E03572
:10172000E4FF7893E624FEFD18E634FFFCEF25E0A5
:101730002401F9C3E39D19E39C40149000DEE0FD11
:101740007401A805088002C333D8FC420680390F13
:10175000BF04CF8033E4FF7893E624FEFD18E6341F
:10176000FFFCEF25E02401F9C3E39D19E39C40143D
:101770009000DEE0FD7401A805088002C333D8FCA8
:10178000420680040FBF02CF9000F6EEF022E4F58F
:1017900021FF79FFFEEE25E02400F8E2FC08E2C319
:1017A000789396EC18964049788FE630E00F7401F4
:1017B000A806088002C333D8FC42078027EEC394F2
:1017C00002500F7401A806088002C333D8FC4207F8
:1017D0008012EE24FEFD7401A805088002C333D8F0
:1017E000FCF452017401A806088002C333D8FC42FD
:1017F000210EBE04A09000F1E521F0A3EFF0A3E9D3
:10180000F022EFC3940650139000DEE06F600CE40A
:101810009000E6F0A3F09000DEEFF09000DEE0FF35
:10182000A3E06F604F788FE630E021EFC39406505D
:101830003D9000F0E0703704F09000DEE024C4F545
:1018400082E43400F583E0788CF680229000DEE0BC
:10185000C3940250199000F0E0701304F09000DE81
:10186000E024C4F582E43400F583E0788CF690003F
:10187000DEE0A3F022C0E0C0F0C083C082C0D0751B
:10188000D000C000C004C005C006C007C28D758C62
:10189000D8758AF0052DE52D7002052CAE2CFF7C45
:1018A000007D641205EDED4C70219000E0E0FEA398
:1018B000E0FFD3940AEE94004006A3EEF0A3EFF00D
:1018C0009000E0E4F0A3F0F52CF52DD007D006D081
:1018D00005D004D000D0D0D082D083D0F0D0E03278
:1018E000E4FBFA121E3C9000DC74FFF09000DEF086
:1018F000A3F0E49000DDF09000E6F0A3F0A3F0A3E5
:10190000F0FFEF25E0248EF582E43415F583E493AF
:10191000FC7401932BFBEC3AFA0FBF02E57C007DCF
:1019200014AF03AE021205ED9000EFEFF0120B7250
:10193000120DF51207FF7F0A121CBF9000E4EEF0B3
:10194000A3EFF0121EA3227881E6FF605FE4F6EFBA
:1019500024E0601E24F0602024F0602A24F060342B
:1019600024F0603724F0603A24607040E4FF121ED7
:101970001D227F01121E1D227892760008760F78B4
:101980008FE64410F6227892760008761E788FE66D
:1019900054EFF622788FE64401F622788FE654FE63
:1019A000F622121CF37890A60608A60722AC07E4DC
:1019B000F9EC6056788FE630E023E4FD74017E0098
:1019C000A805088005C333CE33CED8F9FFECFBE47D
:1019D000EF5B60038D21090DBD04E18021E4FD74FE
:1019E000017E00A805088005C333CE33CED8F9FFA9
:1019F000ECFBE4EF5B60038D21090DBD02E1E9D34F
:101A0000940140037FFF22AF21227FFF22E4FF12D7
:101A1000005E8E1A8F1B7820E51AF208E51BF2791A
:101A200001AF0112005EE925E02420F8EEF208EF94
:101A3000F2D3E51B9FE51A9E40048E1A8F1B09B94D
:101A400006DFE4F9E925E02421F8C3E2951BFF183D
:101A5000E2951AF8E925E02400C8F208EFF209B986
:101A600006E222C0E0C0F0C083C082C0D075D010B2
:101A700053B9FD75250074C42525F8E675F003A457
:101A8000248BF582E4341EF583E493740193FA7495
:101A90000293F91207F9E52525E025E02450F81214
:101AA00007AF0525E525C3940640CB752F00D0D0A0
:101AB000D082D083D0F0D0E032788C7608121D87A7
:101AC000BFFF050876188004788D76FFE4788EF6DF
:101AD00008F674FF08F608F608760008761EE4FF9C
:101AE000EF75F006A42494F8E4F608F6EF75F00616
:101AF000A42496F8E4F608F6EF75F006A42498F806
:101B0000E4F608F60FBF06D875268C22E4FFFE74B3
:101B1000C42EF8E6901F8E9342070EBE06F1EF42E8
:101B2000D4EF42F4EF42E4EFF452DC75BA0C43BA5E
:101B30002043B92053B9BF8FB4E4F5B375B227750C
:101B4000B11075BBFF75A95075AA3BF5AB75AC0319
:101B500075ADC075AEC022E49000E6F0A3F0900031
:101B6000DE74FFF0A3E0FFF46030788FE630E0161B
:101B7000EFC3940650249000F0E0701E04F0788CBF
:101B8000E64408F68014EFC39402500E9000F0E093
:101B9000700804F0788CE64408F69000DF74FFF0DB
:101BA000229000DEE0F4702F12177E1212ED121553
:101BB000EE9000F1E0FF9000F5E0FEEF5E9000F1A6
:101BC000F0A3E0F520A3E052209000F5E052209031
:101BD00000F4E0522080091217089000F6E0F5208A
:101BE000AF2012199D2208C4020503040106000754
:101BF00004CC00000000602D00C4010203040506AF
:101C000007080000000000000000000000000000C5
:101C10000000FF00FFFF00000000000000000000C7
:101C20000000000000000000121DB1E4F51E74C4A5
:101C3000251EF8E675F003A4248BF582E4341EF526
:101C400083E493740193FA740293F91207F9E51E81
:101C500025E025E02450F81207AF051EE51EC394C9
:101C60000640CB22E4FE7C0674C42CF8E6901F8E5E
:101C70009342060CBC08F1EF6005EE42D48004EEFE
:101C8000F452D4EEF4FF52F4EE42E4ED6005EE427D
:101C9000EC8003EF52ECEF52DC227E007FCCE4FDBF
:101CA000ED25E024FDF582E4341DF583E493F46032
:101CB0001DED25E024FEF582E4341DF583E493FC5C
:101CC000EF2DF582E43EF583ECF00DBD10D22275C8
:101CD0001A00751BCC7B017A00BFFF057F017E00D7
:101CE00022E51B2FF582E4351AF583E07A00FB909C
:101CF00000E2E0FCA3E0FDAF037E001205DBAA06D4
:101D0000AB0722E4F518F519FFFEFD7C20ED1DAAB6
:101D10000470011C4A601E0519E519AA1870020515
:101D20001814F5828A83E493F4FBE4F4FAEB2FFFB2
:101D3000EA3EFE80D82243F80875CDC053CC7F43DD
:101D4000CC4043CC2043CC1043CC0453CCFD43CBFC
:101D50000243CB0153CBBF43E80853E5FC43E30206
:101D600043F50343900322FE0030FE0038FE00409E
:101D7000FE0048FE0050FE00580000700000780190
:101D800000F10100E0FE0000FE0080FE0020FE00E9
:101D900028FE0010FE0018E4F518F519FFFD7C2060
:101DA000ED1DAA0470011C4A60160519E519AA1850
:101DB0007002051814F5828A83E493F42FFF80E003
:101DC0002275BF0F000000000000000000000000AE
:101DD000000000000000D2D853B9FD43B901E5B9B5
:101DE00030E1FBE4F5BF22438901C28DD2A953B88B
:101DF000FDE4F52CF52D9000E0F0A3F0A3F0A37422
:101E000064F0758CD8758AF0D28CD2AF22000201B2
:101E100001020103010401050A06050702080A0977
:101E2000020A020B280C3C0D030E01FF01E4FE7DAB
:101E30000674C42DF8E6901F8E9342060DBD08F17E
:101E4000EF6004EE428022EEF452802253BAFEE5A7
:101E5000B920E004E52F6005E5B930E1FBE4F5BF0A
:101E600053B9FE53B9FD22AB07AA06D3EB9DEA9CFA
:101E70004007EB9DFFEA9CFE22C3ED9BFFEC9AFE20
:101E800022EF600543D504800353D5FB53F5FB5384
:101E9000E5FB43E304E49000F0F022FF1EE0FF1EA8
:101EA000F3FF1F06FF1F19FF1F2CFF1F3FFF1F52CD
:101EB000FF1F6575BF0F43B92053B9FD43BA0175C4
:101EC0002F0143B901D2D822AB07AF04AE05C2AF90
:101ED000A803A607E804F8A606D2AF22ED6008EF33
:101EE000901F8E93428022EF901F8E93F452802297
:101EF00053B9EF78CDA6B708A6B608A6B578CC1228
:101F000007962253B9EF78CDA6EB08A6EA08A6E912
:101F100078CC1207962253B9EF78CDA6F308A6F233
:101F200008A6F178CC1207962253B9EF78CDA6FB1C
:101F300008A6FA08A6F978CC1207962243B91078B9
:101F4000CDA6B708A6B608A6B578CC120796224348
:101F5000B91078CDA6EB08A6EA08A6E978CC120756
:101F6000962243B91078CDA6F308A6F208A6F17818
:101F7000CC1207962243B91078CDA6FB08A6FA0822
:101F8000A6F978CC12079622C2DA53D80F43D8D0DC
:101F9000D2D8D2D922EF6003D29222C29222010279
:101FA000040810204080D7FFFFFFFFFFFFFFFFFF67
:00000001FF
