:100000000110050000000000E01B0000FFB9000027
:10001000020FD8FFFFFFFFFFFFFFFF0215837E03E4
:100020009000EEE06F6005EFF0E4A3F09000EEE0EA
:10003000B4FF02E4FE9000EFE004F0C39E50037FA3
:1000400000229000EF7403F07F01220216B9E4F55C
:10005000E3439F08439F02FF0FBF0FFC539FF775B9
:10006000BE0EE4F5BFF5B9759276220213687520CD
:10007000FF7521FF121497E49000FFF0A3F07F01B9
:10008000EF25E02450F8E2FC08E2FD9000FFE025B7
:10009000E02451F9C3E39D19E39C5002EFF0EF25F2
:1000A000E02450F8E2FC08E2FD900100E025E024A5
:1000B00051F9D3E39D19E39C4002EFF00FBF04C058
:1000C0009000FCE0F925E02400F8E2FE08E2FF7869
:1000D00080EEF2FE08EFF2C39405EE9400500BE4BC
:1000E0007884F208F27882F208F29000F0E0FFC320
:1000F0009404400302029E7890E630E03E7894E655
:1001000024FBFD18E634FFFCEF25E02400F8E2FEB6
:1001100008E2C39DEE9C4005E0F521F520E925E0CD
:100120002400F8E2FE08E2C39DEE9C500302022D7B
:1001300089219000F0E0F52002022D7894E624FB5E
:10014000FF18E634FFFE9000F0E0FD25E02400F803
:10015000E2FA08E2C39FEA9E405AED94025007E09B
:10016000F521F520804E9000F0E024FEFF69600A42
:100170009000FCE0F521F52080089000F0E0F521EA
:10018000F5207894E624FBFD18E634FFFC9000FE91
:10019000E0FE25E02400F8E2FA08E2C39DEA9C4074
:1001A00013EF6E6007E0F521F52080089000F0E085
:1001B000F521F5207894E624FBFF18E634FFFE9045
:1001C00000FCE0FD25E02400F8E2FA08E2C39FEA23
:1001D0009E406A9000F0E0FF94025010EDC394023C
:1001E000505B9000FCE0F5218F2080519000F0E002
:1001F000FF24FEFE9000FCE0FD6E6007E0F521F5B7
:100200002080048D218F207894E624FBFD18E634AD
:10021000FFFC9000FEE0FF25E02400F8E2FA08E28F
:10022000C39DEA9C4017EE6F6007E0F521F5208042
:100230000C9000FEE0F5219000F0E0F520E520F4C0
:100240007003020398E52125E02400F8E2FE08E2AD
:10025000FF7884E2FC08E2FDC3EF9DEE9C5003753D
:1002600020FF7882E2FC08E2FDD3EF9DEE9C401275
:10027000E52125E02400F8E2FF08E27882CFF208C9
:10028000EFF27882E2FE08E2FFC3943CEE94005065
:1002900008E408F208F2020398EF7802CEC313CE06
:1002A00013D8F9FF7884EEF208EFF2020398900079
:1002B000FCE0FF25E02400F8E2FC08E2C378949615
:1002C000EC189650030203988F20E52025E02400C7
:1002D000F8E2FE08E2FF7884E2FC08E2FDC3EF9D4D
:1002E000EE9C50037FFF229000FFE0FD6520705BD5
:1002F000A3E025E02450F8E2FE08E2FFED25E0242B
:1003000050F8E2FC08E2FD121AA78E228F2390011A
:1003100000E025E02430F8E2FE08E2FF9000FFE074
:1003200025E02430F8E2FC08E2FD121AA7AD07AC84
:1003300006900101E075F002A42523FFE52235F0C7
:10034000FEC3ED9FEC9E50477FFF22E52025E02471
:1003500030F8E2FC08E2FD9000FFE025E02450F8D0
:10036000E2FE08E2D39DEE9C40037FFF2290010154
:10037000E075F002A4FFE52025E02451F8E22FFF0C
:1003800018E235F0FEC3ED9FEC9E50037FFF2290F4
:1003900000FDE025E02420F8E2FE08E2C378949610
:1003A000EE189640037FFF22AF2022BB0106898210
:1003B0008A83E0225002E722BBFE02E32289828A7E
:1003C00083E49322EF8DF0A4A8F0CF8CF0A428CE84
:1003D0008DF0A42EFE22BC000BBE0029EF8DF08410
:1003E000FFADF022E4CCF875F008EF2FFFEE33FEFE
:1003F000EC33FCEE9DEC984005FCEE9DFE0FD5F035
:10040000E9E4CEFD22EDF8F5F0EE8420D21CFEAD3D
:10041000F075F008EF2FFFED33FD4007985006D53B
:10042000F0F222C398FD0FD5F0EA22E88FF0A4CCB9
:100430008BF0A42CFCE98EF0A42CFC8AF0EDA42C0B
:10044000FCEA8EF0A4CDA8F08BF0A42DCC3825F0DA
:10045000FDE98FF0A42CCD35F0FCEB8EF0A4FEA9C5
:10046000F0EB8FF0A4CFC5F02ECD39FEE43CFCEAD2
:10047000A42DCE35F0FDE43CFC2275F00875820019
:10048000EF2FFFEE33FECD33CDCC33CCC58233C559
:10049000829BED9AEC99E58298400CF582EE9BFEEA
:1004A000ED9AFDEC99FC0FD5F0D6E4CEFBE4CDFA45
:1004B000E4CCF9A88222B800C1B90059BA002DECE9
:1004C0008BF084CFCECDFCE5F0CBF97818EF2FFF81
:1004D000EE33FEED33FDEC33FCEB33FB10D7039929
:1004E0004004EB99FB0FD8E5E4F9FA227818EF2FD6
:1004F000FFEE33FEED33FDEC33FCC933C910D705F5
:100500009BE99A4007EC9BFCE99AF90FD8E0E4C913
:10051000FAE4CCFB2275F010EF2FFFEE33FEED3343
:10052000FDCC33CCC833C810D7079BEC9AE8994070
:100530000AED9BFDEC9AFCE899F80FD5F0DAE4CDD2
:10054000FBE4CCFAE4C8F922EB9FF5F0EA9E42F016
:10055000E99D42F0E89C45F022E8600FECC313FCF3
:10056000ED13FDEE13FEEF13FFD8F122E8600FEF5D
:10057000C333FFEE33FEED33FDEC33FCD8F122E65E
:10058000FC08E6FD08E6FE08E6FF22E6FB08E6F9C1
:1005900008E6FA08E6CBF822ECF608EDF608EEF6E7
:1005A00008EFF622ECF208EDF208EEF208EFF22284
:1005B000D083D082E493F608740193F60874029312
:1005C000F608740393F6740473D083D082E493F234
:1005D00008740193F208740293F208740393F2749E
:1005E00004738A838982E473E4F519F518E5182504
:1005F000E025E02486F81205B9000000000518E5A2
:1006000018B404E912184AE4F518E51825E025E0C5
:100610002486F8C000E2FC08E2FD08E2FE08E2FFE2
:10062000E51825E025E02451F812057BEF2BFFEEBD
:100630003AFEED39FDEC38FCD0001205940518E5C2
:1006400018B404C60519E519C3940540B7E4F518B4
:10065000AF19E4FCFDFEC004A905AA06AB07E51826
:1006600025E025E02486F8E2FC08E2FD08E2FE0829
:10067000E2FFD0001204A68F1D8E1C8D1B8C1AABBE
:100680001DAA1CA91BA81AC000E51825E02471F8B2
:10069000E6FE08E6FFE4FCFDD00012041B8F1D8E71
:1006A0001C8D1B8C1A78071205498F1D8E1C8D1B03
:1006B0008C1AE47FB87E0BFDFCAB1DAA1CA91BA8FD
:1006C0001AD31205384030E51D2448FFE51C34F4E8
:1006D000FEE51B34FFFDE51A34FFFCE51825E02597
:1006E000E02431F8120588E51825E02430F8740B71
:1006F000F20874B8F2801EE51825E025E02431F8F0
:100700001205A000000000E51825E02430F8E51CE3
:10071000F208E51DF2E51825E02430F8E2FE08E2D3
:10072000FFE51825E02450F8EEF208EFF2E5182571
:10073000E02430F8E2FE08E2FFE4FCFDE51825E0E5
:1007400025E02460F8120594E51825E025E02460F2
:10075000F8C000E2FC08E2FD08E2FE08E2FF7807CC
:1007600012055CD000120594E51825E02430F8E26B
:10077000FE08E2FFE51825E02440F8EEF208EFF26B
:10078000E51825E02410F8E4F208F2E51825E02544
:10079000E02486F81205B900000000E51825E024E1
:1007A000B6F8E4F208F20518E518640460030206DE
:1007B00040228E1A8F1BE4F51DF51EF51FF51C90C7
:1007C00000F0E0C394FF40089000EFE06403601E77
:1007D000E51C25E024B6F8E4F208F2E51C25E02546
:1007E000E02486F81205B9000000000208C4E51CE8
:1007F00025E024C6F582E43400F583E0F51DA3E08E
:10080000F51EE51C25E024B7F9E3700219E3701A20
:10081000E51C25E02430F8E2FE08E2FFE51C25E0B7
:1008200024A6F8EEF208EFF28062E51C25E024A68B
:10083000F8E2FE08E2FFE51C25E02430F8E2FC08BF
:10084000E2FD121AA7AC06AD07E51DC313FEE51EB7
:1008500013FFD3ED9FEC9E4033E51C25E02430F8D8
:10086000E2FE08E2FFE51C25E024A6F8EEF208EF20
:10087000F2E51C25E024B6F8E4F208F2E51C25E0D8
:1008800025E02486F81205B900000000E51C25E0EB
:100890002430F8E2FE08E2FFE51C25E025E024868E
:1008A000F8C000E2FB08E2F908E2FA08E2CBF8E45B
:1008B000FCFDEB2FFFEA3EFEED39FDEC38FCD000ED
:1008C000120594E51C25E024B6F808E22401F2188C
:1008D000E23400F2051CE51CC3940450030207AF88
:1008E000E4F51CE51C25E024B7F9C3E3951B19E3E7
:1008F000951A4002051F051CE51CB404E6E51F64BB
:10090000047063F51CE51C25E024B6F8E2FE08E25D
:10091000FF4E604BE4FCFDC004A905AA06AB07E549
:100920001C25E025E02486F8E2FC08E2FD08E2FE52
:1009300008E2FFD0001204A6E51C25E02440F8EEF2
:10094000F208EFF2E51C25E024B6F8E4F208F2E53F
:100950001C25E025E02486F81205B90000000005FA
:100960001CE51CB4049F228F1AE4F51BE51B25E04F
:1009700025E02431F812056FE4FBFAF9F8C31205FB
:10098000387003020AF8E51A703CE51B25E025E003
:100990002431F8C00012056FC006C007E51B25E032
:1009A0002440F8E2FE08E2FFFBAA06E4F9F8D007CB
:1009B000D006EF2BFFEE3AFEE93DFDE83CFCD0000F
:1009C000120588020A6FE51AB4013BE51B25E025F4
:1009D000E02431F8C00012056FC006C007E51B25F2
:1009E000E02450F8E2FE08E2FFFBAA06E4F9F8D0A2
:1009F00007D006EF2BFFEE3AFEE93DFDE83CFCD0C8
:100A0000001205888079E51AB4023BE51B25E02534
:100A1000E02431F8C00012056FC006C007E51B25B1
:100A2000E02430F8E2FE08E2FFFBAA06E4F9F8D081
:100A300007D006EF2BFFEE3AFEE93DFDE83CFCD087
:100A4000001205888039E51B25E025E02431F8C037
:100A50000012056FC006C007E51B25E02440F8E240
:100A6000FE08E2FFFBAA06E4F9F8D007D006EF2B58
:100A7000FFEE3AFEE93DFDE83CFCD000120588E5BA
:100A80001B25E025E02431F8C00012056FC3EF9468
:100A9000B8FFEE940BFEED9400FDEC9400FCD0004A
:100AA000120588E51B25E02440F8740BF20874B8A1
:100AB000F2E51B25E02430F8740BF20874B8F2E577
:100AC0001B25E02450F8740BF20874B8F2E51B25DE
:100AD000E025E02460F81205B900000BB8E51B25FD
:100AE000E025E02460F8C000E2FC08E2FD08E2FE38
:100AF00008E2FF780712055CD000120594E51B257B
:100B0000E02410F8E4F208F2051BE51B640460031E
:100B100002095C2285BA1E53BA0F43BA10E4F518D5
:100B2000E51825E025E02451F81205A0000000009A
:100B30000518E518B404E975180A75ABFF1219E336
:100B4000E4F519E51925E025E02451F8C000120567
:100B50006FC004C005C006C00774C52519F8E67546
:100B6000F003A424C1F582E4341AF583E493FB7402
:100B70000193FA740293F91205D2A804A905AA06F2
:100B8000AB07D007D006D005D004EF2BFFEE3AFE1E
:100B9000ED39FDEC38FCD0001205880519E519C3C4
:100BA0009404409FE4F5AB1219E3E4F519E5192527
:100BB000E025E02451F8C00012056FC004C005C054
:100BC00006C00774C52519F8E675F003A424C1F51D
:100BD00082E4341AF583E493FB740193FA7402936C
:100BE000F91205D2A804A905AA06AB07D007D006BA
:100BF000D005D004C3EF9BFFEE9AFEED99FDEC9873
:100C0000FCD0001205880519E519C39404409E150F
:100C100018E5186003020B2AE4F519E4751D207528
:100C20001C4EF51BF51AAF1DAE1CAD1BAC1A780798
:100C300012055C8F1D8E1C8D1B8C1AE51925E02575
:100C4000E02451F812057B1204A68F1D8E1C8D1B0B
:100C50008C1AE51925E02471F8A60608A6070519DF
:100C6000E519B404B6851EBA227518FF7519081265
:100C700010EB1212B5EF640170767F011218F1AD1E
:100C800007AC067880E2FA08E2FB4A700FED7802C2
:100C9000CEC313CE13D8F9FDAC068036C3EB940552
:100CA000EA94005009ECC313FCED13FD8024C378D3
:100CB00081E2941418E294005009ECC313FCED1384
:100CC000FD800FEDAE047802CEC313CE13D8F9FD2C
:100CD000AC06D39000F7E094009000F6E09400405A
:100CE00006EC13FCED13FDAF05AE041207A2800362
:100CF000AF19229000EEE0F518E51804706F90002F
:100D0000FFE025E02450F8E2FE08E2FFA3E025E042
:100D10002450F8E2FC08E2FD121AA7AC06AD0790D9
:100D20000101E075F002A4FFD3ED9FEC95F04010B7
:100D30009000FBE004F070069000FAE004F08007F9
:100D4000E49000FAF0A3F07F071218F1D39000FBB3
:100D5000E09F9000FAE09E4008E4F0A3F0FF120943
:100D600057121800E49000F8F0A3F08032E49000ED
:100D7000FAF0A3F0AF181215109000F9E004F0702B
:100D8000069000F8E004F07F051218F1D39000F906
:100D9000E09F9000F8E09E40061218007F0322AF0B
:100DA0001922E4F518E51825E025E02451F8C000E3
:100DB00012056FC006C007E51825E02471F8E6FEAD
:100DC00008E6FFFBAA06E4F9F8D007D00612041BD8
:100DD000D000120588E51825E025E02451F8C00070
:100DE00012056F7807120549D000120588E518250D
:100DF000E025E02451F812056FEC4D4E4F700302D0
:100E00000EA4E51825E025E02431F812056FE51859
:100E100025E025E02451F812057BC3120538500364
:100E20007F0322E51825E025E02431F812057BC078
:100E300000E51825E025E02451F812056FD000C325
:100E4000EF9BF51CEE9AF51BED99F51AEC98F51948
:100E5000E47FFF7EFFFDFCAB1CAA1BA91AA819C3E7
:100E600012053840037F0322E51825E02430F8E519
:100E70001BF208E51CF2E51825E02440F8E2FE0824
:100E8000E2FFE51825E02430F8E2FC08E2FDD39FFC
:100E9000EC9E4013ED9FFFEC9EF8E51825E0241032
:100EA000C8F208EFF2801BE51825E02410F8E4F200
:100EB00008F2800EE51825E02410F8E4F208F27F2D
:100EC00003220518E51864046003020D957F0722CC
:100ED0007518077D0774017E00A818088005C333C4
:100EE000CE33CED8F9FFACACECFBE4EF5B7003D5AE
:100EF00018E3ED601D74017E00A805088005C3336A
:100F0000CE33CED8F9FFACAEECFBE4EF5B70031D43
:100F100080E0AF187401A807088002C333D8FCF53D
:100F2000AC7401A805088002C333D8FCFFF5AD8F6F
:100F3000AE53AACF85BA2153BA0F43BA10E4F51CB9
:100F4000F51BF51AF5191219E3E4F51874C52518FF
:100F5000F8E675F003A424C1F582E4341AF583E4BD
:100F600093740193FA740293F91205D28F208E1FA5
:100F70008D1E8C1DAB1CAA1BA91AA819C3120538FB
:100F8000500C85201C851F1B851E1A851D190518F0
:100F9000E518C3940440B5AF1CAE1BAD1AAC19786C
:100FA00003120549E51C2FF51CE51B3EF51BE51A50
:100FB0003DF51AE5193CF519AF1CAE1BAD1AFC78CE
:100FC000101205498FB3AF1CAE1BAD1AAC197808CF
:100FD0001205498FB2851CB143AA308521BA75AC80
:100FE0000375ADC075AEC022E453C6DFE5C600B5DB
:100FF000C6F675830075820775FD0DE4E5FEF4FF06
:1010000075830075820675FD0DE4E5FEB50704F5F0
:101010009E8003759E0078100000D8FC53C6E04304
:10102000C60843C68075960475970475830075825B
:101030000375FD0DE4E5FEF4FF758300758202750E
:10104000FD0DE4E5FEB50704F59580037595837500
:10105000BE0E5392FE9001007F007E02E4F0A3DFFB
:10106000FCDEFA78007F00E4F208DFFC78FFE4F6AB
:10107000D8FD7581D00210A60200000211E0E493B1
:10108000A3F8E493A34003F68001F208DFF480297B
:10109000E493A3F85407240CC8C333C4540F44206A
:1010A000C8834004F456800146F6DFE4800B010259
:1010B000040810204080901763E47E019360BCA375
:1010C000FF543F30E509541FFEE493A360010ECFA7
:1010D00054C025E060A840B8E493A3FAE493A3F8D1
:1010E000E493A3C8C582C8CAC583CAF0A3C8C58291
:1010F000C8CAC583CADFE9DEE780BE7810E2FE0811
:10110000E2FFE4FCFD7B64FAF9F812041BC006C0A0
:10111000079000C6E0FEA3E0FFFBAA06E4F9F8D0C2
:1011200007D0061204A68E1B8F1C751A01E51A251E
:10113000E02410F8E2FE08E2FFE4FCFD7B64FAF92B
:10114000F812041BC006C007E51A25E024C6F58284
:10115000E43400F583E0FEA3E0FFFBAA06E4F9F81F
:10116000D007D0061204A68E1D8F1ED3E51C951E37
:10117000E51B951D4006851D1B851E1C051AE51ADD
:10118000B404AAE4F51AE51A25E02410F8E2FE08F2
:10119000E2FFE4FCFD7B64FAF9F812041BC006C010
:1011A00007E51A25E024C6F582E43400F583E0FE65
:1011B000A3E0FFFBAA06E4F9F8D007D0061204A6C4
:1011C0008E1D8F1EC3E51E951CFFE51D951BF8E5C2
:1011D0001A25E02400C8F208EFF2E51A25E02420E1
:1011E000F8E51DF208E51EF2051AE51AB404972287
:1011F00012003E7D01E4FF1218867F01121A4F7F14
:1012000001121A6E121AEE121BC2121A091218BC1F
:1012100012170F121958D2AF752F01E52F24FD6058
:101220001C14602424FE60291460301460602407BC
:10123000705F1217B5121654752F0480541217B52B
:10124000121654752F048049E53070FC752F068006
:1012500040120D928F2F121AD98036D39000F7E0EA
:1012600094009000F6E09400400CA3E024FFF0907E
:1012700000F6E034FFF09000F3E004F07006900018
:10128000F2E004F0120C598F2F12141A8003752FFC
:1012900004900102E06025E4788CF6FF121AEEE477
:1012A000900102F0F52BF52C00052CE52C700205C1
:1012B0002B64A0452B70F17F01121AEED2D81215C3
:1012C000EE02120B2212005E8F1AE51AC39404502C
:1012D0000302135BE4F51BE51B25E02430F8E2FE76
:1012E00008E2FFE48F1F8E1EF51DF51CAD1DAC1C22
:1012F000780712055C8F1F8E1E8D1D8C1CE51B252B
:10130000E025E02460F8E2FC08E2FD08E2FE08E2E5
:10131000FFE47B3FFAF9F812041BEF251FFFEE35BF
:101320001EFEED351DFDEC351CFC7806120549E569
:101330001B25E025E02460F8120594E51B25E02537
:10134000E02460F8E2FC08E2FD08E2FE08E2FF7833
:1013500007120549E51B25E02450F8EEF208EFF2EC
:10136000051BE51B640460030212C7AF1A12000ECE
:10137000EF7002FF227F0122C0E0C0F0C083C08274
:10138000C0D075D008C2CF30CD0302140F30CB4986
:1013900020CC467881A6CEE6FF54F0FEBE8031EF29
:1013A000540F75F003A42489F582E43419F583E41D
:1013B00093FB740193FA7402938B288A29F52A050A
:1013C0002AE52A7002052914F912039BF5CE80093B
:1013D0007881E62527F8E6F5CE30CC2A7881E654E8
:1013E000F0FFBF8015AB28052AE52AAA297002055F
:1013F0002914F912039BF5CE8021788106E6252772
:10140000F8E6F5CE801520CB127881E6FFC3940A6A
:10141000500674822FF8A6CE788106788C7601D09B
:10142000D0D082D083D0F0D0E032E4F518E5187542
:10143000F006A42495FFE51825E02420F8E2FC0836
:10144000E2FD121B02E51875F006A42497FFE518CB
:1014500025E02410F8E2FC08E2FD121B02E51875F5
:10146000F006A42499FBC003E51825E02430F8E237
:10147000FE08E2FFE4FCFDE51825E025E02431F854
:1014800012057BEF2BFFEE3AFEED39FDEC38FC78D0
:1014900004120549AD07AC06D007121B020518E57A
:1014A00018C394044087227820E2FE08E2FDAC06CF
:1014B0008E24F525E4FFF9FEEE25E02420F8E2FA7B
:1014C00008E2FBD39DEA9C4006AF06AC02AD03EEFA
:1014D00025E02420F8E2FA08E2FBC39525EA9524EA
:1014E0005006A9068A248B250EBE04CC9000FCEF82
:1014F000F0A3E9F0E4FCFDFE9000FCE06E6017EE66
:1015000025E02420F8E2FA08E2FBD39DEA9C40069D
:10151000AF06AC02AD030EBE04DE9000FEEFF0227B
:10152000EFC3940450139000F0E06F600CE490005F
:10153000F8F0A3F09000F0EFF09000F0E0FFA3E0EF
:101540006F604F7890E630E021EFC39404503D90F7
:101550000102E0703704F09000F0E024D6F582E458
:101560003400F583E0788DF680229000F0E0C3949B
:10157000025019900102E0701304F09000F0E02492
:10158000D6F582E43400F583E0788DF69000F0E043
:10159000A3F022C0E0C0F0C083C082C0D075D000EC
:1015A000C000C004C005C006C007C28D758CD875C8
:1015B0008AF0052EE52E7002052DAE2DFF7C007DF4
:1015C000641203C6ED4C70219000F2E0FEA3E0FF30
:1015D000D3940AEE94004006A3EEF0A3EFF090003F
:1015E000F2E4F0A3F0F52DF52ED007D006D005D00B
:1015F00004D000D0D0D082D083D0F0D0E032788236
:10160000E6FF605FE4F6EF24E0601E24F060202433
:10161000F0602A24F0603424F0603724F0603A242B
:10162000607040E4FF121A4F227F01121A4F227895
:101630009376000876167890E64410F62278937632
:101640000008763C7890E654EFF6227890E6440164
:10165000F6227890E654FEF6221219257891A60615
:1016600008A60722121A8C9000EE74FFF09000F08A
:10167000F0A3F0E49000EFF09000F8F0A3F078848D
:10168000F208F2A3F0A3F0900101F0FFEF25E024AF
:10169000C6F582E43400F583E0A3E0FE900101E0AA
:1016A0002EF00FBF04E6900101E075F02884F012DF
:1016B0000B04120EC01205D87F0A1218F19000F622
:1016C000EEF0A3EFF0121AD922C0E0C0F0C083C040
:1016D00082C0D075D01053B9FD75260074C525267B
:1016E000F8E675F003A424C1F582E4341AF583E426
:1016F00093740193FA740293F91205D2E52625E05A
:1017000025E02451F81205880526E526C3940440F7
:10171000CB753000D0D0D082D083D0F0D0E03278FA
:101720008D76081219B9BFFF050876058004788EFA
:1017300076FFE4788FF608761074FF08F608F6084E
:101740007600087616E4FFEF75F006A42495F8E419
:10175000F608F6EF75F006A42497F8E4F608F6EF1D
:1017600075F006A42499F8E4F608F60FBF04D875BE
:10177000278D2208C5030604050207FFFF04CD00DC
:10178000000000603D00C6006C007E007E0082000C
:101790003F003F003F003F01020304050607080029
:1017A000000000000000000000000000000000FF3A
:1017B00000FFFF000000000000000000000000002B
:1017C0000000000000E4FFFE74C52EF8E6901BCF79
:1017D0009342070EBE04F1EF42D4EF42F4EF42E42D
:1017E000EFF452DC75BA0C43BA2043B92053B9BFA9
:1017F0008FB4E4F5B375B22775B11075BBFF75A949
:101800005075AA3BF5AB75AC0375ADC075AEC02283
:10181000E49000F8F0A3F09000F074FFF0A3E0FF74
:10182000F460307890E630E016EFC39404502490D2
:101830000102E0701E04F0788DE64408F68014EF93
:10184000C39402500E900102E0700804F0788DE617
:101850004408F69000F174FFF0221219E3E4F51E3B
:1018600074C5251EF8E675F003A424C1F582E4349E
:101870001AF583E493740193FA740293F91205D272
:10188000E51E25E025E02451F8120588051EE51E19
:10189000C3940440CB22E4FE7C0474C52CF8E6908B
:1018A0001BCF9342060CBC06F1EF6005EE42D480DC
:1018B00004EEF452D4EEF4FF52F4EE42E4ED60058F
:1018C000EE42EC8003EF52ECEF52DC227E007FDE32
:1018D000E4FDED25E0242FF582E4341AF583E4934A
:1018E000F4601DED25E02430F582E4341AF583E43C
:1018F00093FCEF2DF582E43EF583ECF00DBD10D2A4
:1019000022751A00751BDE7B017A00BFFF057F017F
:101910007E0022E51B2FF582E4351AF583E07A007C
:10192000FB9000F4E0FCA3E0FDAF037E001203B4E3
:10193000AA06AB0722E4F518F519FFFEFD7C20EDA1
:101940001DAA0470011C4A601E0519E519AA187029
:1019500002051814F5828A83E493F4FBE4F4FAEBAD
:101960002FFFEA3EFE80D82243F80875CDC053CC45
:101970007F43CC4043CC2043CC1043CC0453CCFD1C
:1019800043CB0243CB0153CBBF43E80853E5FC43B1
:10199000E30243F50343900322FE0030FE0038FECD
:1019A0000040FE0048FE0050FE005800007100009C
:1019B000790100EE0100F2FE0000FE0008FE0020AA
:1019C000FE0028FE0010FE0018E4F518F519FFFDD2
:1019D0007C20ED1DAA0470011C4A60160519E5194A
:1019E000AA187002051814F5828A83E493F42FFF75
:1019F00080E02275BF0F0000000000000000000022
:101A00000000000000000000D2D853B9FD43B90126
:101A1000E5B930E1FBE4F5BF22438901C28DD2A9CB
:101A200053B8FDE4F52DF52E9000F2F0A3F0A3F0ED
:101A3000A37464F0758CD8758AF0D28CD2AF220072
:101A4000020101020103010401050A06050702085B
:101A50000A09020A020B280C3C0D030E01FF01E4E7
:101A6000FE7D0474C52DF8E6901BCF9342060DBD94
:101A700006F1EF6004EE428022EEF4528022EF6025
:101A80000543D504800353D5FB53F5FB53E5FB43D6
:101A9000E304E4900102F0900104F02253BAFEE561
:101AA000B920E004E5306005E5B930E1FBE4F5BFBD
:101AB00053B9FE53B9FD22AB07AA06D3EB9DEA9CAE
:101AC0004007EB9DFFEA9CFE22C3ED9BFFEC9AFED4
:101AD00022FF1B2AFF1B3DFF1B50FF1B63FF1B76D2
:101AE000FF1B89FF1B9CFF1BAF75BF0F43B9205322
:101AF000B9FD43BA0175300143B901D2D822EF6074
:101B000009D29290010374FFF022C292E490010383
:101B1000F022AB07AF04AE05C2AFA803A607E804E6
:101B2000F8A606D2AF22ED6008EF901BCF9342805B
:101B300022EF901BCF93F452802253B9EF78CEA6B8
:101B4000B708A6B608A6B578CD12056F2253B9EF2F
:101B500078CEA6EB08A6EA08A6E978CD12056F2292
:101B600053B9EF78CEA6F308A6F208A6F178CD1205
:101B7000056F2253B9EF78CEA6FB08A6FA08A6F99E
:101B800078CD12056F2243B91078CEA6B708A6B655
:101B900008A6B578CD12056F2243B91078CEA6EB12
:101BA00008A6EA08A6E978CD12056F2243B9107895
:101BB000CEA6F308A6F208A6F178CD12056F22434F
:101BC000B91078CEA6FB08A6FA08A6F978CD1205BA
:101BD0006F22C2DA53D80F43D8D0D2D8D2D922013B
:101BE0000204081020408040FFFFFFFFFFFFFFFFBF
:00000001FF
